{
  "_format": "hh-sol-artifact-1",
  "contractName": "Grow2Earn",
  "sourceName": "contracts/Grow2Earn.sol",
  "abi": [
    {
      "inputs": [],
      "stateMutability": "nonpayable",
      "type": "constructor"
    },
    {
      "anonymous": false,
      "inputs": [
        {
          "indexed": true,
          "internalType": "address",
          "name": "owner",
          "type": "address"
        },
        {
          "indexed": true,
          "internalType": "address",
          "name": "approved",
          "type": "address"
        },
        {
          "indexed": true,
          "internalType": "uint256",
          "name": "tokenId",
          "type": "uint256"
        }
      ],
      "name": "Approval",
      "type": "event"
    },
    {
      "anonymous": false,
      "inputs": [
        {
          "indexed": true,
          "internalType": "address",
          "name": "owner",
          "type": "address"
        },
        {
          "indexed": true,
          "internalType": "address",
          "name": "operator",
          "type": "address"
        },
        {
          "indexed": false,
          "internalType": "bool",
          "name": "approved",
          "type": "bool"
        }
      ],
      "name": "ApprovalForAll",
      "type": "event"
    },
    {
      "anonymous": false,
      "inputs": [
        {
          "indexed": false,
          "internalType": "address",
          "name": "sender",
          "type": "address"
        },
        {
          "indexed": false,
          "internalType": "uint256",
          "name": "tokenId",
          "type": "uint256"
        }
      ],
      "name": "NewAgaveNFTMinted",
      "type": "event"
    },
    {
      "anonymous": false,
      "inputs": [
        {
          "indexed": true,
          "internalType": "address",
          "name": "from",
          "type": "address"
        },
        {
          "indexed": true,
          "internalType": "address",
          "name": "to",
          "type": "address"
        },
        {
          "indexed": true,
          "internalType": "uint256",
          "name": "tokenId",
          "type": "uint256"
        }
      ],
      "name": "Transfer",
      "type": "event"
    },
    {
      "inputs": [
        {
          "internalType": "address",
          "name": "to",
          "type": "address"
        },
        {
          "internalType": "uint256",
          "name": "tokenId",
          "type": "uint256"
        }
      ],
      "name": "approve",
      "outputs": [],
      "stateMutability": "nonpayable",
      "type": "function"
    },
    {
      "inputs": [
        {
          "internalType": "address",
          "name": "owner",
          "type": "address"
        }
      ],
      "name": "balanceOf",
      "outputs": [
        {
          "internalType": "uint256",
          "name": "",
          "type": "uint256"
        }
      ],
      "stateMutability": "view",
      "type": "function"
    },
    {
      "inputs": [
        {
          "internalType": "uint256",
          "name": "tokenId",
          "type": "uint256"
        }
      ],
      "name": "getApproved",
      "outputs": [
        {
          "internalType": "address",
          "name": "",
          "type": "address"
        }
      ],
      "stateMutability": "view",
      "type": "function"
    },
    {
      "inputs": [],
      "name": "getCounter",
      "outputs": [
        {
          "internalType": "uint256",
          "name": "",
          "type": "uint256"
        }
      ],
      "stateMutability": "view",
      "type": "function"
    },
    {
      "inputs": [
        {
          "internalType": "uint256",
          "name": "tokenId",
          "type": "uint256"
        }
      ],
      "name": "getIsValid",
      "outputs": [
        {
          "internalType": "bool",
          "name": "",
          "type": "bool"
        }
      ],
      "stateMutability": "view",
      "type": "function"
    },
    {
      "inputs": [],
      "name": "getMaxId",
      "outputs": [
        {
          "internalType": "uint256",
          "name": "",
          "type": "uint256"
        }
      ],
      "stateMutability": "view",
      "type": "function"
    },
    {
      "inputs": [
        {
          "internalType": "uint256",
          "name": "tokenId",
          "type": "uint256"
        }
      ],
      "name": "getRecord",
      "outputs": [
        {
          "components": [
            {
              "internalType": "string",
              "name": "imageURI",
              "type": "string"
            },
            {
              "internalType": "uint256",
              "name": "timestamp",
              "type": "uint256"
            }
          ],
          "internalType": "struct Grow2Earn.Record[]",
          "name": "",
          "type": "tuple[]"
        }
      ],
      "stateMutability": "view",
      "type": "function"
    },
    {
      "inputs": [
        {
          "internalType": "address",
          "name": "owner",
          "type": "address"
        },
        {
          "internalType": "address",
          "name": "operator",
          "type": "address"
        }
      ],
      "name": "isApprovedForAll",
      "outputs": [
        {
          "internalType": "bool",
          "name": "",
          "type": "bool"
        }
      ],
      "stateMutability": "view",
      "type": "function"
    },
    {
      "inputs": [
        {
          "internalType": "string",
          "name": "imageURI",
          "type": "string"
        }
      ],
      "name": "makeAgaveNFT",
      "outputs": [],
      "stateMutability": "nonpayable",
      "type": "function"
    },
    {
      "inputs": [],
      "name": "name",
      "outputs": [
        {
          "internalType": "string",
          "name": "",
          "type": "string"
        }
      ],
      "stateMutability": "view",
      "type": "function"
    },
    {
      "inputs": [
        {
          "internalType": "uint256",
          "name": "tokenId",
          "type": "uint256"
        }
      ],
      "name": "ownerOf",
      "outputs": [
        {
          "internalType": "address",
          "name": "",
          "type": "address"
        }
      ],
      "stateMutability": "view",
      "type": "function"
    },
    {
      "inputs": [
        {
          "internalType": "uint256",
          "name": "tokenId",
          "type": "uint256"
        }
      ],
      "name": "redeem",
      "outputs": [],
      "stateMutability": "nonpayable",
      "type": "function"
    },
    {
      "inputs": [
        {
          "internalType": "address",
          "name": "from",
          "type": "address"
        },
        {
          "internalType": "address",
          "name": "to",
          "type": "address"
        },
        {
          "internalType": "uint256",
          "name": "tokenId",
          "type": "uint256"
        }
      ],
      "name": "safeTransferFrom",
      "outputs": [],
      "stateMutability": "nonpayable",
      "type": "function"
    },
    {
      "inputs": [
        {
          "internalType": "address",
          "name": "from",
          "type": "address"
        },
        {
          "internalType": "address",
          "name": "to",
          "type": "address"
        },
        {
          "internalType": "uint256",
          "name": "tokenId",
          "type": "uint256"
        },
        {
          "internalType": "bytes",
          "name": "_data",
          "type": "bytes"
        }
      ],
      "name": "safeTransferFrom",
      "outputs": [],
      "stateMutability": "nonpayable",
      "type": "function"
    },
    {
      "inputs": [
        {
          "internalType": "address",
          "name": "operator",
          "type": "address"
        },
        {
          "internalType": "bool",
          "name": "approved",
          "type": "bool"
        }
      ],
      "name": "setApprovalForAll",
      "outputs": [],
      "stateMutability": "nonpayable",
      "type": "function"
    },
    {
      "inputs": [
        {
          "internalType": "bytes4",
          "name": "interfaceId",
          "type": "bytes4"
        }
      ],
      "name": "supportsInterface",
      "outputs": [
        {
          "internalType": "bool",
          "name": "",
          "type": "bool"
        }
      ],
      "stateMutability": "view",
      "type": "function"
    },
    {
      "inputs": [],
      "name": "symbol",
      "outputs": [
        {
          "internalType": "string",
          "name": "",
          "type": "string"
        }
      ],
      "stateMutability": "view",
      "type": "function"
    },
    {
      "inputs": [
        {
          "internalType": "uint256",
          "name": "tokenId",
          "type": "uint256"
        }
      ],
      "name": "tokenURI",
      "outputs": [
        {
          "internalType": "string",
          "name": "",
          "type": "string"
        }
      ],
      "stateMutability": "view",
      "type": "function"
    },
    {
      "inputs": [
        {
          "internalType": "address",
          "name": "from",
          "type": "address"
        },
        {
          "internalType": "address",
          "name": "to",
          "type": "address"
        },
        {
          "internalType": "uint256",
          "name": "tokenId",
          "type": "uint256"
        }
      ],
      "name": "transferFrom",
      "outputs": [],
      "stateMutability": "nonpayable",
      "type": "function"
    },
    {
      "inputs": [
        {
          "internalType": "uint256",
          "name": "tokenId",
          "type": "uint256"
        },
        {
          "internalType": "string",
          "name": "imageURI",
          "type": "string"
        }
      ],
      "name": "updateTokenURI",
      "outputs": [],
      "stateMutability": "nonpayable",
      "type": "function"
    }
  ],
  "bytecode": "0x608060405260636008553480156200001657600080fd5b506040518060400160405280600881526020017f53717572654e46540000000000000000000000000000000000000000000000008152506040518060400160405280600681526020017f535155415245000000000000000000000000000000000000000000000000000081525081600090805190602001906200009b929190620001d4565b508060019080519060200190620000b4929190620001d4565b505050620001026040518060400160405280601881526020017f54686973206973206d79204e465420636f6e74726163742e00000000000000008152506200010860201b620014791760201c565b620003b1565b620001a8816040516024016200011f9190620002c5565b6040516020818303038152906040527f41304fac000000000000000000000000000000000000000000000000000000007bffffffffffffffffffffffffffffffffffffffffffffffffffffffff19166020820180517bffffffffffffffffffffffffffffffffffffffffffffffffffffffff8381831617835250505050620001ab60201b60201c565b50565b60008151905060006a636f6e736f6c652e6c6f679050602083016000808483855afa5050505050565b828054620001e2906200033b565b90600052602060002090601f01602090048101928262000206576000855562000252565b82601f106200022157805160ff191683800117855562000252565b8280016001018555821562000252579182015b828111156200025157825182559160200191906001019062000234565b5b50905062000261919062000265565b5090565b5b808211156200028057600081600090555060010162000266565b5090565b60006200029182620002e9565b6200029d8185620002f4565b9350620002af81856020860162000305565b620002ba81620003a0565b840191505092915050565b60006020820190508181036000830152620002e1818462000284565b905092915050565b600081519050919050565b600082825260208201905092915050565b60005b838110156200032557808201518184015260208101905062000308565b8381111562000335576000848401525b50505050565b600060028204905060018216806200035457607f821691505b602082108114156200036b576200036a62000371565b5b50919050565b7f4e487b7100000000000000000000000000000000000000000000000000000000600052602260045260246000fd5b6000601f19601f8301169050919050565b613fc280620003c16000396000f3fe608060405234801561001057600080fd5b506004361061012c5760003560e01c806370a08231116100ad578063b88d4fde11610071578063b88d4fde14610353578063c87b56dd1461036f578063d477a7121461039f578063db006a75146103bd578063e985e9c5146103d95761012c565b806370a082311461029b5780638ada066e146102cb57806395d89b41146102e9578063a22cb46514610307578063ac14dbdc146103235761012c565b806318e97fd1116100f457806318e97fd1146101fb57806323b872dd1461021757806342842e0e1461023357806342cc367a1461024f5780636352211e1461026b5761012c565b806301ffc9a71461013157806303e9e6091461016157806306fdde0314610191578063081812fc146101af578063095ea7b3146101df575b600080fd5b61014b6004803603810190610146919061293b565b610409565b60405161015891906130d1565b60405180910390f35b61017b600480360381019061017691906129ce565b6104eb565b60405161018891906130af565b60405180910390f35b6101996105f9565b6040516101a691906130ec565b60405180910390f35b6101c960048036038101906101c491906129ce565b61068b565b6040516101d6919061301f565b60405180910390f35b6101f960048036038101906101f491906128ff565b610710565b005b610215600480360381019061021091906129f7565b610828565b005b610231600480360381019061022c91906127f9565b610a7c565b005b61024d600480360381019061024891906127f9565b610adc565b005b6102696004803603810190610264919061298d565b610afc565b005b610285600480360381019061028091906129ce565b610cfe565b604051610292919061301f565b60405180910390f35b6102b560048036038101906102b09190612794565b610db0565b6040516102c291906133ec565b60405180910390f35b6102d3610e68565b6040516102e091906133ec565b60405180910390f35b6102f1610e79565b6040516102fe91906130ec565b60405180910390f35b610321600480360381019061031c91906128c3565b610f0b565b005b61033d600480360381019061033891906129ce565b610f21565b60405161034a91906130d1565b60405180910390f35b61036d60048036038101906103689190612848565b610f84565b005b610389600480360381019061038491906129ce565b610fe6565b60405161039691906130ec565b60405180910390f35b6103a7611138565b6040516103b491906133ec565b60405180910390f35b6103d760048036038101906103d291906129ce565b611142565b005b6103f360048036038101906103ee91906127bd565b6113e5565b60405161040091906130d1565b60405180910390f35b60007f80ac58cd000000000000000000000000000000000000000000000000000000007bffffffffffffffffffffffffffffffffffffffffffffffffffffffff1916827bffffffffffffffffffffffffffffffffffffffffffffffffffffffff191614806104d457507f5b5e139f000000000000000000000000000000000000000000000000000000007bffffffffffffffffffffffffffffffffffffffffffffffffffffffff1916827bffffffffffffffffffffffffffffffffffffffffffffffffffffffff1916145b806104e457506104e382611512565b5b9050919050565b6060600b6000838152602001908152602001600020805480602002602001604051908101604052809291908181526020016000905b828210156105ee5783829060005260206000209060020201604051806040016040529081600082018054610553906136e6565b80601f016020809104026020016040519081016040528092919081815260200182805461057f906136e6565b80156105cc5780601f106105a1576101008083540402835291602001916105cc565b820191906000526020600020905b8154815290600101906020018083116105af57829003601f168201915b5050505050815260200160018201548152505081526020019060010190610520565b505050509050919050565b606060008054610608906136e6565b80601f0160208091040260200160405190810160405280929190818152602001828054610634906136e6565b80156106815780601f1061065657610100808354040283529160200191610681565b820191906000526020600020905b81548152906001019060200180831161066457829003601f168201915b5050505050905090565b60006106968261157c565b6106d5576040517f08c379a00000000000000000000000000000000000000000000000000000000081526004016106cc9061332c565b60405180910390fd5b6004600083815260200190815260200160002060009054906101000a900473ffffffffffffffffffffffffffffffffffffffff169050919050565b600061071b82610cfe565b90508073ffffffffffffffffffffffffffffffffffffffff168373ffffffffffffffffffffffffffffffffffffffff16141561078c576040517f08c379a00000000000000000000000000000000000000000000000000000000081526004016107839061336c565b60405180910390fd5b8073ffffffffffffffffffffffffffffffffffffffff166107ab6115e8565b73ffffffffffffffffffffffffffffffffffffffff1614806107da57506107d9816107d46115e8565b6113e5565b5b610819576040517f08c379a00000000000000000000000000000000000000000000000000000000081526004016108109061324c565b60405180910390fd5b61082383836115f0565b505050565b600161083460076116a9565b61083e91906135fc565b821115610880576040517f08c379a0000000000000000000000000000000000000000000000000000000008152600401610877906133ac565b60405180910390fd5b600982815481106108ba577f4e487b7100000000000000000000000000000000000000000000000000000000600052603260045260246000fd5b9060005260206000200160009054906101000a900473ffffffffffffffffffffffffffffffffffffffff1673ffffffffffffffffffffffffffffffffffffffff163373ffffffffffffffffffffffffffffffffffffffff1614610952576040517f08c379a0000000000000000000000000000000000000000000000000000000008152600401610949906131ac565b60405180910390fd5b600a828154811061098c577f4e487b7100000000000000000000000000000000000000000000000000000000600052603260045260246000fd5b90600052602060002090602091828204019190069054906101000a900460ff166109eb576040517f08c379a00000000000000000000000000000000000000000000000000000000081526004016109e2906133cc565b60405180910390fd5b6109fe826109f984846116b7565b611718565b600b600083815260200190815260200160002060405180604001604052808381526020014281525090806001815401808255809150506001900390600052602060002090600202016000909190919091506000820151816000019080519060200190610a6b9291906125b8565b506020820151816001015550505050565b610a8d610a876115e8565b8261178c565b610acc576040517f08c379a0000000000000000000000000000000000000000000000000000000008152600401610ac39061338c565b60405180910390fd5b610ad783838361186a565b505050565b610af783838360405180602001604052806000815250610f84565b505050565b6000610b0860076116a9565b9050600854811115610b4f576040517f08c379a0000000000000000000000000000000000000000000000000000000008152600401610b469061322c565b60405180910390fd5b6000610b5b82846116b7565b9050610b673383611ad1565b610b718282611718565b600b600083815260200190815260200160002060405180604001604052808581526020014281525090806001815401808255809150506001900390600052602060002090600202016000909190919091506000820151816000019080519060200190610bde9291906125b8565b506020820151816001015550506009339080600181540180825580915050600190039060005260206000200160009091909190916101000a81548173ffffffffffffffffffffffffffffffffffffffff021916908373ffffffffffffffffffffffffffffffffffffffff160217905550600a600190806001815401808255809150506001900390600052602060002090602091828204019190069091909190916101000a81548160ff021916908315150217905550610cb6604051806060016040528060258152602001613f28602591398333611aef565b610cc06007611b8e565b7f826d684fa93efa6aa226e036c558106cea0f3cf5993fd9815ea9911eb5daf4b03383604051610cf1929190613086565b60405180910390a1505050565b6000806002600084815260200190815260200160002060009054906101000a900473ffffffffffffffffffffffffffffffffffffffff169050600073ffffffffffffffffffffffffffffffffffffffff168173ffffffffffffffffffffffffffffffffffffffff161415610da7576040517f08c379a0000000000000000000000000000000000000000000000000000000008152600401610d9e906132ac565b60405180910390fd5b80915050919050565b60008073ffffffffffffffffffffffffffffffffffffffff168273ffffffffffffffffffffffffffffffffffffffff161415610e21576040517f08c379a0000000000000000000000000000000000000000000000000000000008152600401610e189061328c565b60405180910390fd5b600360008373ffffffffffffffffffffffffffffffffffffffff1673ffffffffffffffffffffffffffffffffffffffff168152602001908152602001600020549050919050565b6000610e7460076116a9565b905090565b606060018054610e88906136e6565b80601f0160208091040260200160405190810160405280929190818152602001828054610eb4906136e6565b8015610f015780601f10610ed657610100808354040283529160200191610f01565b820191906000526020600020905b815481529060010190602001808311610ee457829003601f168201915b5050505050905090565b610f1d610f166115e8565b8383611ba4565b5050565b6000600a8281548110610f5d577f4e487b7100000000000000000000000000000000000000000000000000000000600052603260045260246000fd5b90600052602060002090602091828204019190069054906101000a900460ff169050919050565b610f95610f8f6115e8565b8361178c565b610fd4576040517f08c379a0000000000000000000000000000000000000000000000000000000008152600401610fcb9061338c565b60405180910390fd5b610fe084848484611d11565b50505050565b6060610ff18261157c565b611030576040517f08c379a00000000000000000000000000000000000000000000000000000000081526004016110279061330c565b60405180910390fd5b6000600660008481526020019081526020016000208054611050906136e6565b80601f016020809104026020016040519081016040528092919081815260200182805461107c906136e6565b80156110c95780601f1061109e576101008083540402835291602001916110c9565b820191906000526020600020905b8154815290600101906020018083116110ac57829003601f168201915b5050505050905060006110da611d6d565b90506000815114156110f0578192505050611133565b60008251111561112557808260405160200161110d929190612f94565b60405160208183030381529060405292505050611133565b61112e84611d84565b925050505b919050565b6000600854905090565b600161114e60076116a9565b61115891906135fc565b81111561119a576040517f08c379a0000000000000000000000000000000000000000000000000000000008152600401611191906133ac565b60405180910390fd5b600981815481106111d4577f4e487b7100000000000000000000000000000000000000000000000000000000600052603260045260246000fd5b9060005260206000200160009054906101000a900473ffffffffffffffffffffffffffffffffffffffff1673ffffffffffffffffffffffffffffffffffffffff1661121e82610cfe565b73ffffffffffffffffffffffffffffffffffffffff161415611275576040517f08c379a000000000000000000000000000000000000000000000000000000000815260040161126c9061326c565b60405180910390fd5b600a81815481106112af577f4e487b7100000000000000000000000000000000000000000000000000000000600052603260045260246000fd5b90600052602060002090602091828204019190069054906101000a900460ff1661130e576040517f08c379a0000000000000000000000000000000000000000000000000000000008152600401611305906133cc565b60405180910390fd5b61137d336009838154811061134c577f4e487b7100000000000000000000000000000000000000000000000000000000600052603260045260246000fd5b9060005260206000200160009054906101000a900473ffffffffffffffffffffffffffffffffffffffff1683610adc565b6000600a82815481106113b9577f4e487b7100000000000000000000000000000000000000000000000000000000600052603260045260246000fd5b90600052602060002090602091828204019190066101000a81548160ff02191690831515021790555050565b6000600560008473ffffffffffffffffffffffffffffffffffffffff1673ffffffffffffffffffffffffffffffffffffffff16815260200190815260200160002060008373ffffffffffffffffffffffffffffffffffffffff1673ffffffffffffffffffffffffffffffffffffffff16815260200190815260200160002060009054906101000a900460ff16905092915050565b61150f8160405160240161148d91906130ec565b6040516020818303038152906040527f41304fac000000000000000000000000000000000000000000000000000000007bffffffffffffffffffffffffffffffffffffffffffffffffffffffff19166020820180517bffffffffffffffffffffffffffffffffffffffffffffffffffffffff8381831617835250505050611e2b565b50565b60007f01ffc9a7000000000000000000000000000000000000000000000000000000007bffffffffffffffffffffffffffffffffffffffffffffffffffffffff1916827bffffffffffffffffffffffffffffffffffffffffffffffffffffffff1916149050919050565b60008073ffffffffffffffffffffffffffffffffffffffff166002600084815260200190815260200160002060009054906101000a900473ffffffffffffffffffffffffffffffffffffffff1673ffffffffffffffffffffffffffffffffffffffff1614159050919050565b600033905090565b816004600083815260200190815260200160002060006101000a81548173ffffffffffffffffffffffffffffffffffffffff021916908373ffffffffffffffffffffffffffffffffffffffff160217905550808273ffffffffffffffffffffffffffffffffffffffff1661166383610cfe565b73ffffffffffffffffffffffffffffffffffffffff167f8c5be1e5ebec7d5bd14f71427d1e84f3dd0314c0f7b2291e5b200ac8c7c3b92560405160405180910390a45050565b600081600001549050919050565b606060006116ed6116c785611e54565b846040516020016116d9929190612fda565b604051602081830303815290604052612001565b9050806040516020016117009190612fb8565b60405160208183030381529060405291505092915050565b6117218261157c565b611760576040517f08c379a0000000000000000000000000000000000000000000000000000000008152600401611757906132cc565b60405180910390fd5b806006600084815260200190815260200160002090805190602001906117879291906125b8565b505050565b60006117978261157c565b6117d6576040517f08c379a00000000000000000000000000000000000000000000000000000000081526004016117cd9061320c565b60405180910390fd5b60006117e183610cfe565b90508073ffffffffffffffffffffffffffffffffffffffff168473ffffffffffffffffffffffffffffffffffffffff161480611823575061182281856113e5565b5b8061186157508373ffffffffffffffffffffffffffffffffffffffff166118498461068b565b73ffffffffffffffffffffffffffffffffffffffff16145b91505092915050565b8273ffffffffffffffffffffffffffffffffffffffff1661188a82610cfe565b73ffffffffffffffffffffffffffffffffffffffff16146118e0576040517f08c379a00000000000000000000000000000000000000000000000000000000081526004016118d79061316c565b60405180910390fd5b600073ffffffffffffffffffffffffffffffffffffffff168273ffffffffffffffffffffffffffffffffffffffff161415611950576040517f08c379a0000000000000000000000000000000000000000000000000000000008152600401611947906131cc565b60405180910390fd5b61195b8383836121bf565b6119666000826115f0565b6001600360008573ffffffffffffffffffffffffffffffffffffffff1673ffffffffffffffffffffffffffffffffffffffff16815260200190815260200160002060008282546119b691906135fc565b925050819055506001600360008473ffffffffffffffffffffffffffffffffffffffff1673ffffffffffffffffffffffffffffffffffffffff1681526020019081526020016000206000828254611a0d919061351b565b92505081905550816002600083815260200190815260200160002060006101000a81548173ffffffffffffffffffffffffffffffffffffffff021916908373ffffffffffffffffffffffffffffffffffffffff160217905550808273ffffffffffffffffffffffffffffffffffffffff168473ffffffffffffffffffffffffffffffffffffffff167fddf252ad1be2c89b69c2b068fc378daa952ba7f163c4a11628f55a4df523b3ef60405160405180910390a4611acc8383836121c4565b505050565b611aeb8282604051806020016040528060008152506121c9565b5050565b611b89838383604051602401611b079392919061310e565b6040516020818303038152906040527fe3849f79000000000000000000000000000000000000000000000000000000007bffffffffffffffffffffffffffffffffffffffffffffffffffffffff19166020820180517bffffffffffffffffffffffffffffffffffffffffffffffffffffffff8381831617835250505050611e2b565b505050565b6001816000016000828254019250508190555050565b8173ffffffffffffffffffffffffffffffffffffffff168373ffffffffffffffffffffffffffffffffffffffff161415611c13576040517f08c379a0000000000000000000000000000000000000000000000000000000008152600401611c0a906131ec565b60405180910390fd5b80600560008573ffffffffffffffffffffffffffffffffffffffff1673ffffffffffffffffffffffffffffffffffffffff16815260200190815260200160002060008473ffffffffffffffffffffffffffffffffffffffff1673ffffffffffffffffffffffffffffffffffffffff16815260200190815260200160002060006101000a81548160ff0219169083151502179055508173ffffffffffffffffffffffffffffffffffffffff168373ffffffffffffffffffffffffffffffffffffffff167f17307eab39ab6107e8899845ad3d59bd9653f200f220920489ca2b5937696c3183604051611d0491906130d1565b60405180910390a3505050565b611d1c84848461186a565b611d2884848484612224565b611d67576040517f08c379a0000000000000000000000000000000000000000000000000000000008152600401611d5e9061314c565b60405180910390fd5b50505050565b606060405180602001604052806000815250905090565b6060611d8f8261157c565b611dce576040517f08c379a0000000000000000000000000000000000000000000000000000000008152600401611dc59061334c565b60405180910390fd5b6000611dd8611d6d565b90506000815111611df85760405180602001604052806000815250611e23565b80611e0284611e54565b604051602001611e13929190612f94565b6040516020818303038152906040525b915050919050565b60008151905060006a636f6e736f6c652e6c6f679050602083016000808483855afa5050505050565b60606000821415611e9c576040518060400160405280600181526020017f30000000000000000000000000000000000000000000000000000000000000008152509050611ffc565b600082905060005b60008214611ece578080611eb790613749565b915050600a82611ec79190613571565b9150611ea4565b60008167ffffffffffffffff811115611f10577f4e487b7100000000000000000000000000000000000000000000000000000000600052604160045260246000fd5b6040519080825280601f01601f191660200182016040528015611f425781602001600182028036833780820191505090505b5090505b60008514611ff557600182611f5b91906135fc565b9150600a85611f6a9190613792565b6030611f76919061351b565b60f81b818381518110611fb2577f4e487b7100000000000000000000000000000000000000000000000000000000600052603260045260246000fd5b60200101907effffffffffffffffffffffffffffffffffffffffffffffffffffffffffffff1916908160001a905350600a85611fee9190613571565b9450611f46565b8093505050505b919050565b6060600082519050600081141561202a57604051806020016040528060008152509150506121ba565b6000600360028361203b919061351b565b6120459190613571565b600461205191906135a2565b90506000602082612062919061351b565b67ffffffffffffffff8111156120a1577f4e487b7100000000000000000000000000000000000000000000000000000000600052604160045260246000fd5b6040519080825280601f01601f1916602001820160405280156120d35781602001600182028036833780820191505090505b5090506000604051806060016040528060408152602001613f4d604091399050600181016020830160005b868110156121775760038101905062ffffff818a015116603f8160121c168401518060081b905060ff603f83600c1c1686015116810190508060081b905060ff603f8360061c1686015116810190508060081b905060ff603f831686015116810190508060e01b905080845260048401935050506120fe565b50600386066001811461219157600281146121a1576121ac565b613d3d60f01b60028303526121ac565b603d60f81b60018303525b508484525050819450505050505b919050565b505050565b505050565b6121d383836123bb565b6121e06000848484612224565b61221f576040517f08c379a00000000000000000000000000000000000000000000000000000000081526004016122169061314c565b60405180910390fd5b505050565b60006122458473ffffffffffffffffffffffffffffffffffffffff16612595565b156123ae578373ffffffffffffffffffffffffffffffffffffffff1663150b7a0261226e6115e8565b8786866040518563ffffffff1660e01b8152600401612290949392919061303a565b602060405180830381600087803b1580156122aa57600080fd5b505af19250505080156122db57506040513d601f19601f820116820180604052508101906122d89190612964565b60015b61235e573d806000811461230b576040519150601f19603f3d011682016040523d82523d6000602084013e612310565b606091505b50600081511415612356576040517f08c379a000000000000000000000000000000000000000000000000000000000815260040161234d9061314c565b60405180910390fd5b805181602001fd5b63150b7a0260e01b7bffffffffffffffffffffffffffffffffffffffffffffffffffffffff1916817bffffffffffffffffffffffffffffffffffffffffffffffffffffffff1916149150506123b3565b600190505b949350505050565b600073ffffffffffffffffffffffffffffffffffffffff168273ffffffffffffffffffffffffffffffffffffffff16141561242b576040517f08c379a0000000000000000000000000000000000000000000000000000000008152600401612422906132ec565b60405180910390fd5b6124348161157c565b15612474576040517f08c379a000000000000000000000000000000000000000000000000000000000815260040161246b9061318c565b60405180910390fd5b612480600083836121bf565b6001600360008473ffffffffffffffffffffffffffffffffffffffff1673ffffffffffffffffffffffffffffffffffffffff16815260200190815260200160002060008282546124d0919061351b565b92505081905550816002600083815260200190815260200160002060006101000a81548173ffffffffffffffffffffffffffffffffffffffff021916908373ffffffffffffffffffffffffffffffffffffffff160217905550808273ffffffffffffffffffffffffffffffffffffffff16600073ffffffffffffffffffffffffffffffffffffffff167fddf252ad1be2c89b69c2b068fc378daa952ba7f163c4a11628f55a4df523b3ef60405160405180910390a4612591600083836121c4565b5050565b6000808273ffffffffffffffffffffffffffffffffffffffff163b119050919050565b8280546125c4906136e6565b90600052602060002090601f0160209004810192826125e6576000855561262d565b82601f106125ff57805160ff191683800117855561262d565b8280016001018555821561262d579182015b8281111561262c578251825591602001919060010190612611565b5b50905061263a919061263e565b5090565b5b8082111561265757600081600090555060010161263f565b5090565b600061266e6126698461342c565b613407565b90508281526020810184848401111561268657600080fd5b6126918482856136a4565b509392505050565b60006126ac6126a78461345d565b613407565b9050828152602081018484840111156126c457600080fd5b6126cf8482856136a4565b509392505050565b6000813590506126e681613ecb565b92915050565b6000813590506126fb81613ee2565b92915050565b60008135905061271081613ef9565b92915050565b60008151905061272581613ef9565b92915050565b600082601f83011261273c57600080fd5b813561274c84826020860161265b565b91505092915050565b600082601f83011261276657600080fd5b8135612776848260208601612699565b91505092915050565b60008135905061278e81613f10565b92915050565b6000602082840312156127a657600080fd5b60006127b4848285016126d7565b91505092915050565b600080604083850312156127d057600080fd5b60006127de858286016126d7565b92505060206127ef858286016126d7565b9150509250929050565b60008060006060848603121561280e57600080fd5b600061281c868287016126d7565b935050602061282d868287016126d7565b925050604061283e8682870161277f565b9150509250925092565b6000806000806080858703121561285e57600080fd5b600061286c878288016126d7565b945050602061287d878288016126d7565b935050604061288e8782880161277f565b925050606085013567ffffffffffffffff8111156128ab57600080fd5b6128b78782880161272b565b91505092959194509250565b600080604083850312156128d657600080fd5b60006128e4858286016126d7565b92505060206128f5858286016126ec565b9150509250929050565b6000806040838503121561291257600080fd5b6000612920858286016126d7565b92505060206129318582860161277f565b9150509250929050565b60006020828403121561294d57600080fd5b600061295b84828501612701565b91505092915050565b60006020828403121561297657600080fd5b600061298484828501612716565b91505092915050565b60006020828403121561299f57600080fd5b600082013567ffffffffffffffff8111156129b957600080fd5b6129c584828501612755565b91505092915050565b6000602082840312156129e057600080fd5b60006129ee8482850161277f565b91505092915050565b60008060408385031215612a0a57600080fd5b6000612a188582860161277f565b925050602083013567ffffffffffffffff811115612a3557600080fd5b612a4185828601612755565b9150509250929050565b6000612a578383612f39565b905092915050565b612a6881613630565b82525050565b6000612a798261349e565b612a8381856134cc565b935083602082028501612a958561348e565b8060005b85811015612ad15784840389528151612ab28582612a4b565b9450612abd836134bf565b925060208a01995050600181019050612a99565b50829750879550505050505092915050565b612aec81613642565b82525050565b6000612afd826134a9565b612b0781856134dd565b9350612b178185602086016136b3565b612b208161387f565b840191505092915050565b6000612b36826134b4565b612b4081856134ee565b9350612b508185602086016136b3565b612b598161387f565b840191505092915050565b6000612b6f826134b4565b612b7981856134ff565b9350612b898185602086016136b3565b612b928161387f565b840191505092915050565b6000612ba8826134b4565b612bb28185613510565b9350612bc28185602086016136b3565b80840191505092915050565b6000612bdb6032836134ff565b9150612be682613890565b604082019050919050565b6000612bfe602883613510565b9150612c09826138df565b602882019050919050565b6000612c216025836134ff565b9150612c2c8261392e565b604082019050919050565b6000612c44601c836134ff565b9150612c4f8261397d565b602082019050919050565b6000612c67601f836134ff565b9150612c72826139a6565b602082019050919050565b6000612c8a6024836134ff565b9150612c95826139cf565b604082019050919050565b6000612cad6019836134ff565b9150612cb882613a1e565b602082019050919050565b6000612cd0602c836134ff565b9150612cdb82613a47565b604082019050919050565b6000612cf3600a836134ff565b9150612cfe82613a96565b602082019050919050565b6000612d166038836134ff565b9150612d2182613abf565b604082019050919050565b6000612d396039836134ff565b9150612d4482613b0e565b604082019050919050565b6000612d5c602a836134ff565b9150612d6782613b5d565b604082019050919050565b6000612d7f6029836134ff565b9150612d8a82613bac565b604082019050919050565b6000612da2602e836134ff565b9150612dad82613bfb565b604082019050919050565b6000612dc5600283613510565b9150612dd082613c4a565b600282019050919050565b6000612de86020836134ff565b9150612df382613c73565b602082019050919050565b6000612e0b6031836134ff565b9150612e1682613c9c565b604082019050919050565b6000612e2e602c836134ff565b9150612e3982613ceb565b604082019050919050565b6000612e51602f836134ff565b9150612e5c82613d3a565b604082019050919050565b6000612e746021836134ff565b9150612e7f82613d89565b604082019050919050565b6000612e97601d83613510565b9150612ea282613dd8565b601d82019050919050565b6000612eba6031836134ff565b9150612ec582613e01565b604082019050919050565b6000612edd6015836134ff565b9150612ee882613e50565b602082019050919050565b6000612f006010836134ff565b9150612f0b82613e79565b602082019050919050565b6000612f23601483613510565b9150612f2e82613ea2565b601482019050919050565b60006040830160008301518482036000860152612f568282612b2b565b9150506020830151612f6b6020860182612f76565b508091505092915050565b612f7f8161369a565b82525050565b612f8e8161369a565b82525050565b6000612fa08285612b9d565b9150612fac8284612b9d565b91508190509392505050565b6000612fc382612e8a565b9150612fcf8284612b9d565b915081905092915050565b6000612fe582612f16565b9150612ff18285612b9d565b9150612ffc82612bf1565b91506130088284612b9d565b915061301382612db8565b91508190509392505050565b60006020820190506130346000830184612a5f565b92915050565b600060808201905061304f6000830187612a5f565b61305c6020830186612a5f565b6130696040830185612f85565b818103606083015261307b8184612af2565b905095945050505050565b600060408201905061309b6000830185612a5f565b6130a86020830184612f85565b9392505050565b600060208201905081810360008301526130c98184612a6e565b905092915050565b60006020820190506130e66000830184612ae3565b92915050565b600060208201905081810360008301526131068184612b64565b905092915050565b600060608201905081810360008301526131288186612b64565b90506131376020830185612f85565b6131446040830184612a5f565b949350505050565b6000602082019050818103600083015261316581612bce565b9050919050565b6000602082019050818103600083015261318581612c14565b9050919050565b600060208201905081810360008301526131a581612c37565b9050919050565b600060208201905081810360008301526131c581612c5a565b9050919050565b600060208201905081810360008301526131e581612c7d565b9050919050565b6000602082019050818103600083015261320581612ca0565b9050919050565b6000602082019050818103600083015261322581612cc3565b9050919050565b6000602082019050818103600083015261324581612ce6565b9050919050565b6000602082019050818103600083015261326581612d09565b9050919050565b6000602082019050818103600083015261328581612d2c565b9050919050565b600060208201905081810360008301526132a581612d4f565b9050919050565b600060208201905081810360008301526132c581612d72565b9050919050565b600060208201905081810360008301526132e581612d95565b9050919050565b6000602082019050818103600083015261330581612ddb565b9050919050565b6000602082019050818103600083015261332581612dfe565b9050919050565b6000602082019050818103600083015261334581612e21565b9050919050565b6000602082019050818103600083015261336581612e44565b9050919050565b6000602082019050818103600083015261338581612e67565b9050919050565b600060208201905081810360008301526133a581612ead565b9050919050565b600060208201905081810360008301526133c581612ed0565b9050919050565b600060208201905081810360008301526133e581612ef3565b9050919050565b60006020820190506134016000830184612f85565b92915050565b6000613411613422565b905061341d8282613718565b919050565b6000604051905090565b600067ffffffffffffffff82111561344757613446613850565b5b6134508261387f565b9050602081019050919050565b600067ffffffffffffffff82111561347857613477613850565b5b6134818261387f565b9050602081019050919050565b6000819050602082019050919050565b600081519050919050565b600081519050919050565b600081519050919050565b6000602082019050919050565b600082825260208201905092915050565b600082825260208201905092915050565b600082825260208201905092915050565b600082825260208201905092915050565b600081905092915050565b60006135268261369a565b91506135318361369a565b9250827fffffffffffffffffffffffffffffffffffffffffffffffffffffffffffffffff03821115613566576135656137c3565b5b828201905092915050565b600061357c8261369a565b91506135878361369a565b925082613597576135966137f2565b5b828204905092915050565b60006135ad8261369a565b91506135b88361369a565b9250817fffffffffffffffffffffffffffffffffffffffffffffffffffffffffffffffff04831182151516156135f1576135f06137c3565b5b828202905092915050565b60006136078261369a565b91506136128361369a565b925082821015613625576136246137c3565b5b828203905092915050565b600061363b8261367a565b9050919050565b60008115159050919050565b60007fffffffff0000000000000000000000000000000000000000000000000000000082169050919050565b600073ffffffffffffffffffffffffffffffffffffffff82169050919050565b6000819050919050565b82818337600083830152505050565b60005b838110156136d15780820151818401526020810190506136b6565b838111156136e0576000848401525b50505050565b600060028204905060018216806136fe57607f821691505b6020821081141561371257613711613821565b5b50919050565b6137218261387f565b810181811067ffffffffffffffff821117156137405761373f613850565b5b80604052505050565b60006137548261369a565b91507fffffffffffffffffffffffffffffffffffffffffffffffffffffffffffffffff821415613787576137866137c3565b5b600182019050919050565b600061379d8261369a565b91506137a88361369a565b9250826137b8576137b76137f2565b5b828206905092915050565b7f4e487b7100000000000000000000000000000000000000000000000000000000600052601160045260246000fd5b7f4e487b7100000000000000000000000000000000000000000000000000000000600052601260045260246000fd5b7f4e487b7100000000000000000000000000000000000000000000000000000000600052602260045260246000fd5b7f4e487b7100000000000000000000000000000000000000000000000000000000600052604160045260246000fd5b6000601f19601f8301169050919050565b7f4552433732313a207472616e7366657220746f206e6f6e20455243373231526560008201527f63656976657220696d706c656d656e7465720000000000000000000000000000602082015250565b7f222c226465736372697074696f6e223a20224167617665204e4654222c20226960008201527f6d616765223a2022000000000000000000000000000000000000000000000000602082015250565b7f4552433732313a207472616e736665722066726f6d20696e636f72726563742060008201527f6f776e6572000000000000000000000000000000000000000000000000000000602082015250565b7f4552433732313a20746f6b656e20616c7265616479206d696e74656400000000600082015250565b7f4f6e6c79206d696e7465722063616e20757064617465206d6574616461746100600082015250565b7f4552433732313a207472616e7366657220746f20746865207a65726f2061646460008201527f7265737300000000000000000000000000000000000000000000000000000000602082015250565b7f4552433732313a20617070726f766520746f2063616c6c657200000000000000600082015250565b7f4552433732313a206f70657261746f7220717565727920666f72206e6f6e657860008201527f697374656e7420746f6b656e0000000000000000000000000000000000000000602082015250565b7f4f766572206d6178496400000000000000000000000000000000000000000000600082015250565b7f4552433732313a20617070726f76652063616c6c6572206973206e6f74206f7760008201527f6e6572206e6f7220617070726f76656420666f7220616c6c0000000000000000602082015250565b7f52656465656d656420746f6b656e206d757374206265206f776e65642062792060008201527f616464726573732065786365707420666f72206d696e74657200000000000000602082015250565b7f4552433732313a2062616c616e636520717565727920666f7220746865207a6560008201527f726f206164647265737300000000000000000000000000000000000000000000602082015250565b7f4552433732313a206f776e657220717565727920666f72206e6f6e657869737460008201527f656e7420746f6b656e0000000000000000000000000000000000000000000000602082015250565b7f45524337323155524953746f726167653a2055524920736574206f66206e6f6e60008201527f6578697374656e7420746f6b656e000000000000000000000000000000000000602082015250565b7f227d000000000000000000000000000000000000000000000000000000000000600082015250565b7f4552433732313a206d696e7420746f20746865207a65726f2061646472657373600082015250565b7f45524337323155524953746f726167653a2055524920717565727920666f722060008201527f6e6f6e6578697374656e7420746f6b656e000000000000000000000000000000602082015250565b7f4552433732313a20617070726f76656420717565727920666f72206e6f6e657860008201527f697374656e7420746f6b656e0000000000000000000000000000000000000000602082015250565b7f4552433732314d657461646174613a2055524920717565727920666f72206e6f60008201527f6e6578697374656e7420746f6b656e0000000000000000000000000000000000602082015250565b7f4552433732313a20617070726f76616c20746f2063757272656e74206f776e6560008201527f7200000000000000000000000000000000000000000000000000000000000000602082015250565b7f646174613a6170706c69636174696f6e2f6a736f6e3b6261736536342c000000600082015250565b7f4552433732313a207472616e736665722063616c6c6572206973206e6f74206f60008201527f776e6572206e6f7220617070726f766564000000000000000000000000000000602082015250565b7f4f766572206578697374696e6720746f6b656e49640000000000000000000000600082015250565b7f546f6b656e20697320696e76616c696400000000000000000000000000000000600082015250565b7f7b226e616d65223a202241676176654e46542023000000000000000000000000600082015250565b613ed481613630565b8114613edf57600080fd5b50565b613eeb81613642565b8114613ef657600080fd5b50565b613f028161364e565b8114613f0d57600080fd5b50565b613f198161369a565b8114613f2457600080fd5b5056fe416e204e465420772f20494420257320686173206265656e206d696e74656420746f2025734142434445464748494a4b4c4d4e4f505152535455565758595a6162636465666768696a6b6c6d6e6f707172737475767778797a303132333435363738392b2fa26469706673582212207e6c4bbefcc7b7501ae6d08a1e0df902f74ff3dff9113999cbd023d3ffbbb7da64736f6c63430008040033",
  "linkReferences": {},
  "deployedLinkReferences": {}
}