{
  "_format": "hh-sol-artifact-1",
  "contractName": "Grow2Earn",
  "sourceName": "contracts/Grow2Earn.sol",
  "abi": [
    {
      "inputs": [],
      "stateMutability": "nonpayable",
      "type": "constructor"
    },
    {
      "anonymous": false,
      "inputs": [
        {
          "indexed": true,
          "internalType": "address",
          "name": "owner",
          "type": "address"
        },
        {
          "indexed": true,
          "internalType": "address",
          "name": "approved",
          "type": "address"
        },
        {
          "indexed": true,
          "internalType": "uint256",
          "name": "tokenId",
          "type": "uint256"
        }
      ],
      "name": "Approval",
      "type": "event"
    },
    {
      "anonymous": false,
      "inputs": [
        {
          "indexed": true,
          "internalType": "address",
          "name": "owner",
          "type": "address"
        },
        {
          "indexed": true,
          "internalType": "address",
          "name": "operator",
          "type": "address"
        },
        {
          "indexed": false,
          "internalType": "bool",
          "name": "approved",
          "type": "bool"
        }
      ],
      "name": "ApprovalForAll",
      "type": "event"
    },
    {
      "anonymous": false,
      "inputs": [
        {
          "indexed": false,
          "internalType": "address",
          "name": "sender",
          "type": "address"
        },
        {
          "indexed": false,
          "internalType": "uint256",
          "name": "tokenId",
          "type": "uint256"
        }
      ],
      "name": "NewAgaveNFTMinted",
      "type": "event"
    },
    {
      "anonymous": false,
      "inputs": [
        {
          "indexed": false,
          "internalType": "address",
          "name": "sender",
          "type": "address"
        },
        {
          "indexed": false,
          "internalType": "uint256",
          "name": "tokenId",
          "type": "uint256"
        }
      ],
      "name": "TokenURIRedeemed",
      "type": "event"
    },
    {
      "anonymous": false,
      "inputs": [
        {
          "indexed": false,
          "internalType": "address",
          "name": "sender",
          "type": "address"
        },
        {
          "indexed": false,
          "internalType": "uint256",
          "name": "tokenId",
          "type": "uint256"
        },
        {
          "indexed": false,
          "internalType": "uint256",
          "name": "index",
          "type": "uint256"
        }
      ],
      "name": "TokenURISwitched",
      "type": "event"
    },
    {
      "anonymous": false,
      "inputs": [
        {
          "indexed": false,
          "internalType": "address",
          "name": "sender",
          "type": "address"
        },
        {
          "indexed": false,
          "internalType": "uint256",
          "name": "tokenId",
          "type": "uint256"
        }
      ],
      "name": "TokenURIUpdated",
      "type": "event"
    },
    {
      "anonymous": false,
      "inputs": [
        {
          "indexed": true,
          "internalType": "address",
          "name": "from",
          "type": "address"
        },
        {
          "indexed": true,
          "internalType": "address",
          "name": "to",
          "type": "address"
        },
        {
          "indexed": true,
          "internalType": "uint256",
          "name": "tokenId",
          "type": "uint256"
        }
      ],
      "name": "Transfer",
      "type": "event"
    },
    {
      "inputs": [
        {
          "internalType": "address",
          "name": "to",
          "type": "address"
        },
        {
          "internalType": "uint256",
          "name": "tokenId",
          "type": "uint256"
        }
      ],
      "name": "approve",
      "outputs": [],
      "stateMutability": "nonpayable",
      "type": "function"
    },
    {
      "inputs": [
        {
          "internalType": "address",
          "name": "owner",
          "type": "address"
        }
      ],
      "name": "balanceOf",
      "outputs": [
        {
          "internalType": "uint256",
          "name": "",
          "type": "uint256"
        }
      ],
      "stateMutability": "view",
      "type": "function"
    },
    {
      "inputs": [
        {
          "internalType": "uint256",
          "name": "tokenId",
          "type": "uint256"
        }
      ],
      "name": "getApproved",
      "outputs": [
        {
          "internalType": "address",
          "name": "",
          "type": "address"
        }
      ],
      "stateMutability": "view",
      "type": "function"
    },
    {
      "inputs": [],
      "name": "getCounter",
      "outputs": [
        {
          "internalType": "uint256",
          "name": "",
          "type": "uint256"
        }
      ],
      "stateMutability": "view",
      "type": "function"
    },
    {
      "inputs": [
        {
          "internalType": "uint256",
          "name": "tokenId",
          "type": "uint256"
        }
      ],
      "name": "getIsValid",
      "outputs": [
        {
          "internalType": "bool",
          "name": "",
          "type": "bool"
        }
      ],
      "stateMutability": "view",
      "type": "function"
    },
    {
      "inputs": [
        {
          "internalType": "uint256",
          "name": "tokenId",
          "type": "uint256"
        }
      ],
      "name": "getRecord",
      "outputs": [
        {
          "components": [
            {
              "internalType": "string",
              "name": "imageURI",
              "type": "string"
            },
            {
              "internalType": "string",
              "name": "animationURI",
              "type": "string"
            },
            {
              "internalType": "uint256",
              "name": "timestamp",
              "type": "uint256"
            }
          ],
          "internalType": "struct Grow2Earn.Record[]",
          "name": "",
          "type": "tuple[]"
        }
      ],
      "stateMutability": "view",
      "type": "function"
    },
    {
      "inputs": [
        {
          "internalType": "address",
          "name": "owner",
          "type": "address"
        },
        {
          "internalType": "address",
          "name": "operator",
          "type": "address"
        }
      ],
      "name": "isApprovedForAll",
      "outputs": [
        {
          "internalType": "bool",
          "name": "",
          "type": "bool"
        }
      ],
      "stateMutability": "view",
      "type": "function"
    },
    {
      "inputs": [
        {
          "internalType": "string",
          "name": "imageURI",
          "type": "string"
        },
        {
          "internalType": "string",
          "name": "animationURI",
          "type": "string"
        }
      ],
      "name": "makeAgaveNFT",
      "outputs": [],
      "stateMutability": "nonpayable",
      "type": "function"
    },
    {
      "inputs": [],
      "name": "name",
      "outputs": [
        {
          "internalType": "string",
          "name": "",
          "type": "string"
        }
      ],
      "stateMutability": "view",
      "type": "function"
    },
    {
      "inputs": [
        {
          "internalType": "uint256",
          "name": "tokenId",
          "type": "uint256"
        }
      ],
      "name": "ownerOf",
      "outputs": [
        {
          "internalType": "address",
          "name": "",
          "type": "address"
        }
      ],
      "stateMutability": "view",
      "type": "function"
    },
    {
      "inputs": [
        {
          "internalType": "uint256",
          "name": "tokenId",
          "type": "uint256"
        }
      ],
      "name": "redeem",
      "outputs": [],
      "stateMutability": "nonpayable",
      "type": "function"
    },
    {
      "inputs": [
        {
          "internalType": "address",
          "name": "from",
          "type": "address"
        },
        {
          "internalType": "address",
          "name": "to",
          "type": "address"
        },
        {
          "internalType": "uint256",
          "name": "tokenId",
          "type": "uint256"
        }
      ],
      "name": "safeTransferFrom",
      "outputs": [],
      "stateMutability": "nonpayable",
      "type": "function"
    },
    {
      "inputs": [
        {
          "internalType": "address",
          "name": "from",
          "type": "address"
        },
        {
          "internalType": "address",
          "name": "to",
          "type": "address"
        },
        {
          "internalType": "uint256",
          "name": "tokenId",
          "type": "uint256"
        },
        {
          "internalType": "bytes",
          "name": "_data",
          "type": "bytes"
        }
      ],
      "name": "safeTransferFrom",
      "outputs": [],
      "stateMutability": "nonpayable",
      "type": "function"
    },
    {
      "inputs": [
        {
          "internalType": "address",
          "name": "operator",
          "type": "address"
        },
        {
          "internalType": "bool",
          "name": "approved",
          "type": "bool"
        }
      ],
      "name": "setApprovalForAll",
      "outputs": [],
      "stateMutability": "nonpayable",
      "type": "function"
    },
    {
      "inputs": [
        {
          "internalType": "bytes4",
          "name": "interfaceId",
          "type": "bytes4"
        }
      ],
      "name": "supportsInterface",
      "outputs": [
        {
          "internalType": "bool",
          "name": "",
          "type": "bool"
        }
      ],
      "stateMutability": "view",
      "type": "function"
    },
    {
      "inputs": [
        {
          "internalType": "uint256",
          "name": "tokenId",
          "type": "uint256"
        },
        {
          "internalType": "uint256",
          "name": "index",
          "type": "uint256"
        }
      ],
      "name": "switchTokenURI",
      "outputs": [],
      "stateMutability": "nonpayable",
      "type": "function"
    },
    {
      "inputs": [],
      "name": "symbol",
      "outputs": [
        {
          "internalType": "string",
          "name": "",
          "type": "string"
        }
      ],
      "stateMutability": "view",
      "type": "function"
    },
    {
      "inputs": [
        {
          "internalType": "uint256",
          "name": "tokenId",
          "type": "uint256"
        }
      ],
      "name": "tokenURI",
      "outputs": [
        {
          "internalType": "string",
          "name": "",
          "type": "string"
        }
      ],
      "stateMutability": "view",
      "type": "function"
    },
    {
      "inputs": [
        {
          "internalType": "address",
          "name": "from",
          "type": "address"
        },
        {
          "internalType": "address",
          "name": "to",
          "type": "address"
        },
        {
          "internalType": "uint256",
          "name": "tokenId",
          "type": "uint256"
        }
      ],
      "name": "transferFrom",
      "outputs": [],
      "stateMutability": "nonpayable",
      "type": "function"
    },
    {
      "inputs": [
        {
          "internalType": "uint256",
          "name": "tokenId",
          "type": "uint256"
        },
        {
          "internalType": "string",
          "name": "imageURI",
          "type": "string"
        },
        {
          "internalType": "string",
          "name": "animationURI",
          "type": "string"
        }
      ],
      "name": "updateTokenURI",
      "outputs": [],
      "stateMutability": "nonpayable",
      "type": "function"
    }
  ],
  "bytecode": "0x60806040523480156200001157600080fd5b506040518060400160405280601281526020017f5259555a45545355204e465420414c50484100000000000000000000000000008152506040518060400160405280600e81526020017f5259555a4554535520414c504841000000000000000000000000000000000000815250816000908051906020019062000096929190620001cf565b508060019080519060200190620000af929190620001cf565b505050620000fd6040518060400160405280601881526020017f54686973206973206d79204e465420636f6e74726163742e00000000000000008152506200010360201b620018891760201c565b620003ac565b620001a3816040516024016200011a9190620002c0565b6040516020818303038152906040527f41304fac000000000000000000000000000000000000000000000000000000007bffffffffffffffffffffffffffffffffffffffffffffffffffffffff19166020820180517bffffffffffffffffffffffffffffffffffffffffffffffffffffffff8381831617835250505050620001a660201b60201c565b50565b60008151905060006a636f6e736f6c652e6c6f679050602083016000808483855afa5050505050565b828054620001dd9062000336565b90600052602060002090601f0160209004810192826200020157600085556200024d565b82601f106200021c57805160ff19168380011785556200024d565b828001600101855582156200024d579182015b828111156200024c5782518255916020019190600101906200022f565b5b5090506200025c919062000260565b5090565b5b808211156200027b57600081600090555060010162000261565b5090565b60006200028c82620002e4565b620002988185620002ef565b9350620002aa81856020860162000300565b620002b5816200039b565b840191505092915050565b60006020820190508181036000830152620002dc81846200027f565b905092915050565b600081519050919050565b600082825260208201905092915050565b60005b838110156200032057808201518184015260208101905062000303565b8381111562000330576000848401525b50505050565b600060028204905060018216806200034f57607f821691505b602082108114156200036657620003656200036c565b5b50919050565b7f4e487b7100000000000000000000000000000000000000000000000000000000600052602260045260246000fd5b6000601f19601f8301169050919050565b61456280620003bc6000396000f3fe608060405234801561001057600080fd5b506004361061012c5760003560e01c80636352211e116100ad578063ac14dbdc11610071578063ac14dbdc1461033f578063b88d4fde1461036f578063c87b56dd1461038b578063db006a75146103bb578063e985e9c5146103d75761012c565b80636352211e1461028757806370a08231146102b75780638ada066e146102e757806395d89b4114610305578063a22cb465146103235761012c565b8063095ea7b3116100f4578063095ea7b3146101fb5780631f375fea1461021757806323b872dd1461023357806342842e0e1461024f578063437275d91461026b5761012c565b806301ffc9a71461013157806303e9e6091461016157806306fdde031461019157806307049fb5146101af578063081812fc146101cb575b600080fd5b61014b60048036038101906101469190612d4e565b610407565b6040516101589190613625565b60405180910390f35b61017b60048036038101906101769190612e0c565b6104e9565b6040516101889190613603565b60405180910390f35b610199610689565b6040516101a69190613640565b60405180910390f35b6101c960048036038101906101c49190612e35565b61071b565b005b6101e560048036038101906101e09190612e0c565b6109cd565b6040516101f2919061353c565b60405180910390f35b61021560048036038101906102109190612d12565b610a52565b005b610231600480360381019061022c9190612eb4565b610b6a565b005b61024d60048036038101906102489190612c0c565b610f51565b005b61026960048036038101906102649190612c0c565b610fb1565b005b61028560048036038101906102809190612da0565b610fd1565b005b6102a1600480360381019061029c9190612e0c565b6111b3565b6040516102ae919061353c565b60405180910390f35b6102d160048036038101906102cc9190612ba7565b611265565b6040516102de9190613960565b60405180910390f35b6102ef61131d565b6040516102fc9190613960565b60405180910390f35b61030d61132e565b60405161031a9190613640565b60405180910390f35b61033d60048036038101906103389190612cd6565b6113c0565b005b61035960048036038101906103549190612e0c565b6113d6565b6040516103669190613625565b60405180910390f35b61038960048036038101906103849190612c5b565b611439565b005b6103a560048036038101906103a09190612e0c565b61149b565b6040516103b29190613640565b60405180910390f35b6103d560048036038101906103d09190612e0c565b6115ed565b005b6103f160048036038101906103ec9190612bd0565b6117f5565b6040516103fe9190613625565b60405180910390f35b60007f80ac58cd000000000000000000000000000000000000000000000000000000007bffffffffffffffffffffffffffffffffffffffffffffffffffffffff1916827bffffffffffffffffffffffffffffffffffffffffffffffffffffffff191614806104d257507f5b5e139f000000000000000000000000000000000000000000000000000000007bffffffffffffffffffffffffffffffffffffffffffffffffffffffff1916827bffffffffffffffffffffffffffffffffffffffffffffffffffffffff1916145b806104e257506104e182611922565b5b9050919050565b6060600a6000838152602001908152602001600020805480602002602001604051908101604052809291908181526020016000905b8282101561067e578382906000526020600020906003020160405180606001604052908160008201805461055190613c5a565b80601f016020809104026020016040519081016040528092919081815260200182805461057d90613c5a565b80156105ca5780601f1061059f576101008083540402835291602001916105ca565b820191906000526020600020905b8154815290600101906020018083116105ad57829003601f168201915b505050505081526020016001820180546105e390613c5a565b80601f016020809104026020016040519081016040528092919081815260200182805461060f90613c5a565b801561065c5780601f106106315761010080835404028352916020019161065c565b820191906000526020600020905b81548152906001019060200180831161063f57829003601f168201915b505050505081526020016002820154815250508152602001906001019061051e565b505050509050919050565b60606000805461069890613c5a565b80601f01602080910402602001604051908101604052809291908181526020018280546106c490613c5a565b80156107115780601f106106e657610100808354040283529160200191610711565b820191906000526020600020905b8154815290600101906020018083116106f457829003601f168201915b5050505050905090565b6001610727600761198c565b6107319190613b70565b831115610773576040517f08c379a000000000000000000000000000000000000000000000000000000000815260040161076a90613920565b60405180910390fd5b600883815481106107ad577f4e487b7100000000000000000000000000000000000000000000000000000000600052603260045260246000fd5b9060005260206000200160009054906101000a900473ffffffffffffffffffffffffffffffffffffffff1673ffffffffffffffffffffffffffffffffffffffff163373ffffffffffffffffffffffffffffffffffffffff1614610845576040517f08c379a000000000000000000000000000000000000000000000000000000000815260040161083c90613740565b60405180910390fd5b6009838154811061087f577f4e487b7100000000000000000000000000000000000000000000000000000000600052603260045260246000fd5b90600052602060002090602091828204019190069054906101000a900460ff166108de576040517f08c379a00000000000000000000000000000000000000000000000000000000081526004016108d590613940565b60405180910390fd5b6108f2836108ed85858561199a565b6119fe565b600a6000848152602001908152602001600020604051806060016040528084815260200183815260200142815250908060018154018082558091505060019003906000526020600020906003020160009091909190915060008201518160000190805190602001906109659291906129cb565b5060208201518160010190805190602001906109829291906129cb565b506040820151816002015550507f3f83b7d62a244256a1f779eac7fefc3a6e4a5cebdb3c86c1db816fdebd6e5c5533846040516109c09291906135a3565b60405180910390a1505050565b60006109d882611a72565b610a17576040517f08c379a0000000000000000000000000000000000000000000000000000000008152600401610a0e906138a0565b60405180910390fd5b6004600083815260200190815260200160002060009054906101000a900473ffffffffffffffffffffffffffffffffffffffff169050919050565b6000610a5d826111b3565b90508073ffffffffffffffffffffffffffffffffffffffff168373ffffffffffffffffffffffffffffffffffffffff161415610ace576040517f08c379a0000000000000000000000000000000000000000000000000000000008152600401610ac5906138e0565b60405180910390fd5b8073ffffffffffffffffffffffffffffffffffffffff16610aed611ade565b73ffffffffffffffffffffffffffffffffffffffff161480610b1c5750610b1b81610b16611ade565b6117f5565b5b610b5b576040517f08c379a0000000000000000000000000000000000000000000000000000000008152600401610b52906137c0565b60405180910390fd5b610b658383611ae6565b505050565b6001610b76600761198c565b610b809190613b70565b821115610bc2576040517f08c379a0000000000000000000000000000000000000000000000000000000008152600401610bb990613920565b60405180910390fd5b6001600a600084815260200190815260200160002080549050610be59190613b70565b811115610c27576040517f08c379a0000000000000000000000000000000000000000000000000000000008152600401610c1e90613720565b60405180910390fd5b610c30826111b3565b73ffffffffffffffffffffffffffffffffffffffff163373ffffffffffffffffffffffffffffffffffffffff1614610c9d576040517f08c379a0000000000000000000000000000000000000000000000000000000008152600401610c94906136a0565b60405180910390fd5b60098281548110610cd7577f4e487b7100000000000000000000000000000000000000000000000000000000600052603260045260246000fd5b90600052602060002090602091828204019190069054906101000a900460ff16610d36576040517f08c379a0000000000000000000000000000000000000000000000000000000008152600401610d2d90613940565b60405180910390fd5b610f1282610f0d84600a60008781526020019081526020016000208581548110610d89577f4e487b7100000000000000000000000000000000000000000000000000000000600052603260045260246000fd5b90600052602060002090600302016000018054610da590613c5a565b80601f0160208091040260200160405190810160405280929190818152602001828054610dd190613c5a565b8015610e1e5780601f10610df357610100808354040283529160200191610e1e565b820191906000526020600020905b815481529060010190602001808311610e0157829003601f168201915b5050505050600a60008881526020019081526020016000208681548110610e6e577f4e487b7100000000000000000000000000000000000000000000000000000000600052603260045260246000fd5b90600052602060002090600302016001018054610e8a90613c5a565b80601f0160208091040260200160405190810160405280929190818152602001828054610eb690613c5a565b8015610f035780601f10610ed857610100808354040283529160200191610f03565b820191906000526020600020905b815481529060010190602001808311610ee657829003601f168201915b505050505061199a565b6119fe565b7f3516d3b9d511b4ebf5b447beddbf858fdb7935b7e6809c1f652e7ac89aeceb2f338383604051610f45939291906135cc565b60405180910390a15050565b610f62610f5c611ade565b82611b9f565b610fa1576040517f08c379a0000000000000000000000000000000000000000000000000000000008152600401610f9890613900565b60405180910390fd5b610fac838383611c7d565b505050565b610fcc83838360405180602001604052806000815250611439565b505050565b6000610fdd600761198c565b90506000610fec82858561199a565b9050610ff83383611ee4565b61100282826119fe565b600a6000838152602001908152602001600020604051806060016040528086815260200185815260200142815250908060018154018082558091505060019003906000526020600020906003020160009091909190915060008201518160000190805190602001906110759291906129cb565b5060208201518160010190805190602001906110929291906129cb565b506040820151816002015550506008339080600181540180825580915050600190039060005260206000200160009091909190916101000a81548173ffffffffffffffffffffffffffffffffffffffff021916908373ffffffffffffffffffffffffffffffffffffffff1602179055506009600190806001815401808255809150506001900390600052602060002090602091828204019190069091909190916101000a81548160ff02191690831515021790555061116a6040518060600160405280602581526020016144c8602591398333611f02565b6111746007611fa1565b7f826d684fa93efa6aa226e036c558106cea0f3cf5993fd9815ea9911eb5daf4b033836040516111a59291906135a3565b60405180910390a150505050565b6000806002600084815260200190815260200160002060009054906101000a900473ffffffffffffffffffffffffffffffffffffffff169050600073ffffffffffffffffffffffffffffffffffffffff168173ffffffffffffffffffffffffffffffffffffffff16141561125c576040517f08c379a000000000000000000000000000000000000000000000000000000000815260040161125390613800565b60405180910390fd5b80915050919050565b60008073ffffffffffffffffffffffffffffffffffffffff168273ffffffffffffffffffffffffffffffffffffffff1614156112d6576040517f08c379a00000000000000000000000000000000000000000000000000000000081526004016112cd906137e0565b60405180910390fd5b600360008373ffffffffffffffffffffffffffffffffffffffff1673ffffffffffffffffffffffffffffffffffffffff168152602001908152602001600020549050919050565b6000611329600761198c565b905090565b60606001805461133d90613c5a565b80601f016020809104026020016040519081016040528092919081815260200182805461136990613c5a565b80156113b65780601f1061138b576101008083540402835291602001916113b6565b820191906000526020600020905b81548152906001019060200180831161139957829003601f168201915b5050505050905090565b6113d26113cb611ade565b8383611fb7565b5050565b600060098281548110611412577f4e487b7100000000000000000000000000000000000000000000000000000000600052603260045260246000fd5b90600052602060002090602091828204019190069054906101000a900460ff169050919050565b61144a611444611ade565b83611b9f565b611489576040517f08c379a000000000000000000000000000000000000000000000000000000000815260040161148090613900565b60405180910390fd5b61149584848484612124565b50505050565b60606114a682611a72565b6114e5576040517f08c379a00000000000000000000000000000000000000000000000000000000081526004016114dc90613880565b60405180910390fd5b600060066000848152602001908152602001600020805461150590613c5a565b80601f016020809104026020016040519081016040528092919081815260200182805461153190613c5a565b801561157e5780601f106115535761010080835404028352916020019161157e565b820191906000526020600020905b81548152906001019060200180831161156157829003601f168201915b50505050509050600061158f612180565b90506000815114156115a55781925050506115e8565b6000825111156115da5780826040516020016115c2929190613499565b604051602081830303815290604052925050506115e8565b6115e384612197565b925050505b919050565b60016115f9600761198c565b6116039190613b70565b811115611645576040517f08c379a000000000000000000000000000000000000000000000000000000000815260040161163c90613920565b60405180910390fd5b61164e816111b3565b73ffffffffffffffffffffffffffffffffffffffff163373ffffffffffffffffffffffffffffffffffffffff16146116bb576040517f08c379a00000000000000000000000000000000000000000000000000000000081526004016116b290613860565b60405180910390fd5b600981815481106116f5577f4e487b7100000000000000000000000000000000000000000000000000000000600052603260045260246000fd5b90600052602060002090602091828204019190069054906101000a900460ff16611754576040517f08c379a000000000000000000000000000000000000000000000000000000000815260040161174b90613940565b60405180910390fd5b600060098281548110611790577f4e487b7100000000000000000000000000000000000000000000000000000000600052603260045260246000fd5b90600052602060002090602091828204019190066101000a81548160ff0219169083151502179055507fd581cc73bc47d08954d51c985c1ab16f8c522a9b7f2019302f5716ecb70f1ed833826040516117ea9291906135a3565b60405180910390a150565b6000600560008473ffffffffffffffffffffffffffffffffffffffff1673ffffffffffffffffffffffffffffffffffffffff16815260200190815260200160002060008373ffffffffffffffffffffffffffffffffffffffff1673ffffffffffffffffffffffffffffffffffffffff16815260200190815260200160002060009054906101000a900460ff16905092915050565b61191f8160405160240161189d9190613640565b6040516020818303038152906040527f41304fac000000000000000000000000000000000000000000000000000000007bffffffffffffffffffffffffffffffffffffffffffffffffffffffff19166020820180517bffffffffffffffffffffffffffffffffffffffffffffffffffffffff838183161783525050505061223e565b50565b60007f01ffc9a7000000000000000000000000000000000000000000000000000000007bffffffffffffffffffffffffffffffffffffffffffffffffffffffff1916827bffffffffffffffffffffffffffffffffffffffffffffffffffffffff1916149050919050565b600081600001549050919050565b606060006119d26119aa86612267565b85856040516020016119be939291906134bd565b604051602081830303815290604052612414565b9050806040516020016119e5919061351a565b6040516020818303038152906040529150509392505050565b611a0782611a72565b611a46576040517f08c379a0000000000000000000000000000000000000000000000000000000008152600401611a3d90613820565b60405180910390fd5b80600660008481526020019081526020016000209080519060200190611a6d9291906129cb565b505050565b60008073ffffffffffffffffffffffffffffffffffffffff166002600084815260200190815260200160002060009054906101000a900473ffffffffffffffffffffffffffffffffffffffff1673ffffffffffffffffffffffffffffffffffffffff1614159050919050565b600033905090565b816004600083815260200190815260200160002060006101000a81548173ffffffffffffffffffffffffffffffffffffffff021916908373ffffffffffffffffffffffffffffffffffffffff160217905550808273ffffffffffffffffffffffffffffffffffffffff16611b59836111b3565b73ffffffffffffffffffffffffffffffffffffffff167f8c5be1e5ebec7d5bd14f71427d1e84f3dd0314c0f7b2291e5b200ac8c7c3b92560405160405180910390a45050565b6000611baa82611a72565b611be9576040517f08c379a0000000000000000000000000000000000000000000000000000000008152600401611be0906137a0565b60405180910390fd5b6000611bf4836111b3565b90508073ffffffffffffffffffffffffffffffffffffffff168473ffffffffffffffffffffffffffffffffffffffff161480611c365750611c3581856117f5565b5b80611c7457508373ffffffffffffffffffffffffffffffffffffffff16611c5c846109cd565b73ffffffffffffffffffffffffffffffffffffffff16145b91505092915050565b8273ffffffffffffffffffffffffffffffffffffffff16611c9d826111b3565b73ffffffffffffffffffffffffffffffffffffffff1614611cf3576040517f08c379a0000000000000000000000000000000000000000000000000000000008152600401611cea906136e0565b60405180910390fd5b600073ffffffffffffffffffffffffffffffffffffffff168273ffffffffffffffffffffffffffffffffffffffff161415611d63576040517f08c379a0000000000000000000000000000000000000000000000000000000008152600401611d5a90613760565b60405180910390fd5b611d6e8383836125d2565b611d79600082611ae6565b6001600360008573ffffffffffffffffffffffffffffffffffffffff1673ffffffffffffffffffffffffffffffffffffffff1681526020019081526020016000206000828254611dc99190613b70565b925050819055506001600360008473ffffffffffffffffffffffffffffffffffffffff1673ffffffffffffffffffffffffffffffffffffffff1681526020019081526020016000206000828254611e209190613a8f565b92505081905550816002600083815260200190815260200160002060006101000a81548173ffffffffffffffffffffffffffffffffffffffff021916908373ffffffffffffffffffffffffffffffffffffffff160217905550808273ffffffffffffffffffffffffffffffffffffffff168473ffffffffffffffffffffffffffffffffffffffff167fddf252ad1be2c89b69c2b068fc378daa952ba7f163c4a11628f55a4df523b3ef60405160405180910390a4611edf8383836125d7565b505050565b611efe8282604051806020016040528060008152506125dc565b5050565b611f9c838383604051602401611f1a93929190613662565b6040516020818303038152906040527fe3849f79000000000000000000000000000000000000000000000000000000007bffffffffffffffffffffffffffffffffffffffffffffffffffffffff19166020820180517bffffffffffffffffffffffffffffffffffffffffffffffffffffffff838183161783525050505061223e565b505050565b6001816000016000828254019250508190555050565b8173ffffffffffffffffffffffffffffffffffffffff168373ffffffffffffffffffffffffffffffffffffffff161415612026576040517f08c379a000000000000000000000000000000000000000000000000000000000815260040161201d90613780565b60405180910390fd5b80600560008573ffffffffffffffffffffffffffffffffffffffff1673ffffffffffffffffffffffffffffffffffffffff16815260200190815260200160002060008473ffffffffffffffffffffffffffffffffffffffff1673ffffffffffffffffffffffffffffffffffffffff16815260200190815260200160002060006101000a81548160ff0219169083151502179055508173ffffffffffffffffffffffffffffffffffffffff168373ffffffffffffffffffffffffffffffffffffffff167f17307eab39ab6107e8899845ad3d59bd9653f200f220920489ca2b5937696c31836040516121179190613625565b60405180910390a3505050565b61212f848484611c7d565b61213b84848484612637565b61217a576040517f08c379a0000000000000000000000000000000000000000000000000000000008152600401612171906136c0565b60405180910390fd5b50505050565b606060405180602001604052806000815250905090565b60606121a282611a72565b6121e1576040517f08c379a00000000000000000000000000000000000000000000000000000000081526004016121d8906138c0565b60405180910390fd5b60006121eb612180565b9050600081511161220b5760405180602001604052806000815250612236565b8061221584612267565b604051602001612226929190613499565b6040516020818303038152906040525b915050919050565b60008151905060006a636f6e736f6c652e6c6f679050602083016000808483855afa5050505050565b606060008214156122af576040518060400160405280600181526020017f3000000000000000000000000000000000000000000000000000000000000000815250905061240f565b600082905060005b600082146122e15780806122ca90613cbd565b915050600a826122da9190613ae5565b91506122b7565b60008167ffffffffffffffff811115612323577f4e487b7100000000000000000000000000000000000000000000000000000000600052604160045260246000fd5b6040519080825280601f01601f1916602001820160405280156123555781602001600182028036833780820191505090505b5090505b600085146124085760018261236e9190613b70565b9150600a8561237d9190613d06565b60306123899190613a8f565b60f81b8183815181106123c5577f4e487b7100000000000000000000000000000000000000000000000000000000600052603260045260246000fd5b60200101907effffffffffffffffffffffffffffffffffffffffffffffffffffffffffffff1916908160001a905350600a856124019190613ae5565b9450612359565b8093505050505b919050565b6060600082519050600081141561243d57604051806020016040528060008152509150506125cd565b6000600360028361244e9190613a8f565b6124589190613ae5565b60046124649190613b16565b905060006020826124759190613a8f565b67ffffffffffffffff8111156124b4577f4e487b7100000000000000000000000000000000000000000000000000000000600052604160045260246000fd5b6040519080825280601f01601f1916602001820160405280156124e65781602001600182028036833780820191505090505b50905060006040518060600160405280604081526020016144ed604091399050600181016020830160005b8681101561258a5760038101905062ffffff818a015116603f8160121c168401518060081b905060ff603f83600c1c1686015116810190508060081b905060ff603f8360061c1686015116810190508060081b905060ff603f831686015116810190508060e01b90508084526004840193505050612511565b5060038606600181146125a457600281146125b4576125bf565b613d3d60f01b60028303526125bf565b603d60f81b60018303525b508484525050819450505050505b919050565b505050565b505050565b6125e683836127ce565b6125f36000848484612637565b612632576040517f08c379a0000000000000000000000000000000000000000000000000000000008152600401612629906136c0565b60405180910390fd5b505050565b60006126588473ffffffffffffffffffffffffffffffffffffffff166129a8565b156127c1578373ffffffffffffffffffffffffffffffffffffffff1663150b7a02612681611ade565b8786866040518563ffffffff1660e01b81526004016126a39493929190613557565b602060405180830381600087803b1580156126bd57600080fd5b505af19250505080156126ee57506040513d601f19601f820116820180604052508101906126eb9190612d77565b60015b612771573d806000811461271e576040519150601f19603f3d011682016040523d82523d6000602084013e612723565b606091505b50600081511415612769576040517f08c379a0000000000000000000000000000000000000000000000000000000008152600401612760906136c0565b60405180910390fd5b805181602001fd5b63150b7a0260e01b7bffffffffffffffffffffffffffffffffffffffffffffffffffffffff1916817bffffffffffffffffffffffffffffffffffffffffffffffffffffffff1916149150506127c6565b600190505b949350505050565b600073ffffffffffffffffffffffffffffffffffffffff168273ffffffffffffffffffffffffffffffffffffffff16141561283e576040517f08c379a000000000000000000000000000000000000000000000000000000000815260040161283590613840565b60405180910390fd5b61284781611a72565b15612887576040517f08c379a000000000000000000000000000000000000000000000000000000000815260040161287e90613700565b60405180910390fd5b612893600083836125d2565b6001600360008473ffffffffffffffffffffffffffffffffffffffff1673ffffffffffffffffffffffffffffffffffffffff16815260200190815260200160002060008282546128e39190613a8f565b92505081905550816002600083815260200190815260200160002060006101000a81548173ffffffffffffffffffffffffffffffffffffffff021916908373ffffffffffffffffffffffffffffffffffffffff160217905550808273ffffffffffffffffffffffffffffffffffffffff16600073ffffffffffffffffffffffffffffffffffffffff167fddf252ad1be2c89b69c2b068fc378daa952ba7f163c4a11628f55a4df523b3ef60405160405180910390a46129a4600083836125d7565b5050565b6000808273ffffffffffffffffffffffffffffffffffffffff163b119050919050565b8280546129d790613c5a565b90600052602060002090601f0160209004810192826129f95760008555612a40565b82601f10612a1257805160ff1916838001178555612a40565b82800160010185558215612a40579182015b82811115612a3f578251825591602001919060010190612a24565b5b509050612a4d9190612a51565b5090565b5b80821115612a6a576000816000905550600101612a52565b5090565b6000612a81612a7c846139a0565b61397b565b905082815260208101848484011115612a9957600080fd5b612aa4848285613c18565b509392505050565b6000612abf612aba846139d1565b61397b565b905082815260208101848484011115612ad757600080fd5b612ae2848285613c18565b509392505050565b600081359050612af98161446b565b92915050565b600081359050612b0e81614482565b92915050565b600081359050612b2381614499565b92915050565b600081519050612b3881614499565b92915050565b600082601f830112612b4f57600080fd5b8135612b5f848260208601612a6e565b91505092915050565b600082601f830112612b7957600080fd5b8135612b89848260208601612aac565b91505092915050565b600081359050612ba1816144b0565b92915050565b600060208284031215612bb957600080fd5b6000612bc784828501612aea565b91505092915050565b60008060408385031215612be357600080fd5b6000612bf185828601612aea565b9250506020612c0285828601612aea565b9150509250929050565b600080600060608486031215612c2157600080fd5b6000612c2f86828701612aea565b9350506020612c4086828701612aea565b9250506040612c5186828701612b92565b9150509250925092565b60008060008060808587031215612c7157600080fd5b6000612c7f87828801612aea565b9450506020612c9087828801612aea565b9350506040612ca187828801612b92565b925050606085013567ffffffffffffffff811115612cbe57600080fd5b612cca87828801612b3e565b91505092959194509250565b60008060408385031215612ce957600080fd5b6000612cf785828601612aea565b9250506020612d0885828601612aff565b9150509250929050565b60008060408385031215612d2557600080fd5b6000612d3385828601612aea565b9250506020612d4485828601612b92565b9150509250929050565b600060208284031215612d6057600080fd5b6000612d6e84828501612b14565b91505092915050565b600060208284031215612d8957600080fd5b6000612d9784828501612b29565b91505092915050565b60008060408385031215612db357600080fd5b600083013567ffffffffffffffff811115612dcd57600080fd5b612dd985828601612b68565b925050602083013567ffffffffffffffff811115612df657600080fd5b612e0285828601612b68565b9150509250929050565b600060208284031215612e1e57600080fd5b6000612e2c84828501612b92565b91505092915050565b600080600060608486031215612e4a57600080fd5b6000612e5886828701612b92565b935050602084013567ffffffffffffffff811115612e7557600080fd5b612e8186828701612b68565b925050604084013567ffffffffffffffff811115612e9e57600080fd5b612eaa86828701612b68565b9150509250925092565b60008060408385031215612ec757600080fd5b6000612ed585828601612b92565b9250506020612ee685828601612b92565b9150509250929050565b6000612efc8383613424565b905092915050565b612f0d81613ba4565b82525050565b6000612f1e82613a12565b612f288185613a40565b935083602082028501612f3a85613a02565b8060005b85811015612f765784840389528151612f578582612ef0565b9450612f6283613a33565b925060208a01995050600181019050612f3e565b50829750879550505050505092915050565b612f9181613bb6565b82525050565b6000612fa282613a1d565b612fac8185613a51565b9350612fbc818560208601613c27565b612fc581613df3565b840191505092915050565b6000612fdb82613a28565b612fe58185613a62565b9350612ff5818560208601613c27565b612ffe81613df3565b840191505092915050565b600061301482613a28565b61301e8185613a73565b935061302e818560208601613c27565b61303781613df3565b840191505092915050565b600061304d82613a28565b6130578185613a84565b9350613067818560208601613c27565b80840191505092915050565b6000613080601f83613a73565b915061308b82613e04565b602082019050919050565b60006130a3603283613a73565b91506130ae82613e2d565b604082019050919050565b60006130c6602583613a73565b91506130d182613e7c565b604082019050919050565b60006130e9601c83613a73565b91506130f482613ecb565b602082019050919050565b600061310c601b83613a73565b915061311782613ef4565b602082019050919050565b600061312f601f83613a73565b915061313a82613f1d565b602082019050919050565b6000613152602483613a73565b915061315d82613f46565b604082019050919050565b6000613175601983613a73565b915061318082613f95565b602082019050919050565b6000613198602c83613a73565b91506131a382613fbe565b604082019050919050565b60006131bb602b83613a84565b91506131c68261400d565b602b82019050919050565b60006131de603883613a73565b91506131e98261405c565b604082019050919050565b6000613201602a83613a73565b915061320c826140ab565b604082019050919050565b6000613224602983613a73565b915061322f826140fa565b604082019050919050565b6000613247602e83613a73565b915061325282614149565b604082019050919050565b600061326a600283613a84565b915061327582614198565b600282019050919050565b600061328d602083613a73565b9150613298826141c1565b602082019050919050565b60006132b0601583613a73565b91506132bb826141ea565b602082019050919050565b60006132d3603183613a73565b91506132de82614213565b604082019050919050565b60006132f6602c83613a73565b915061330182614262565b604082019050919050565b6000613319601483613a84565b9150613324826142b1565b601482019050919050565b600061333c602f83613a73565b9150613347826142da565b604082019050919050565b600061335f602183613a73565b915061336a82614329565b604082019050919050565b6000613382601d83613a84565b915061338d82614378565b601d82019050919050565b60006133a5603183613a73565b91506133b0826143a1565b604082019050919050565b60006133c8601583613a73565b91506133d3826143f0565b602082019050919050565b60006133eb601083613a73565b91506133f682614419565b602082019050919050565b600061340e601583613a84565b915061341982614442565b601582019050919050565b600060608301600083015184820360008601526134418282612fd0565b9150506020830151848203602086015261345b8282612fd0565b9150506040830151613470604086018261347b565b508091505092915050565b61348481613c0e565b82525050565b61349381613c0e565b82525050565b60006134a58285613042565b91506134b18284613042565b91508190509392505050565b60006134c88261330c565b91506134d48286613042565b91506134df826131ae565b91506134eb8285613042565b91506134f682613401565b91506135028284613042565b915061350d8261325d565b9150819050949350505050565b600061352582613375565b91506135318284613042565b915081905092915050565b60006020820190506135516000830184612f04565b92915050565b600060808201905061356c6000830187612f04565b6135796020830186612f04565b613586604083018561348a565b81810360608301526135988184612f97565b905095945050505050565b60006040820190506135b86000830185612f04565b6135c5602083018461348a565b9392505050565b60006060820190506135e16000830186612f04565b6135ee602083018561348a565b6135fb604083018461348a565b949350505050565b6000602082019050818103600083015261361d8184612f13565b905092915050565b600060208201905061363a6000830184612f88565b92915050565b6000602082019050818103600083015261365a8184613009565b905092915050565b6000606082019050818103600083015261367c8186613009565b905061368b602083018561348a565b6136986040830184612f04565b949350505050565b600060208201905081810360008301526136b981613073565b9050919050565b600060208201905081810360008301526136d981613096565b9050919050565b600060208201905081810360008301526136f9816130b9565b9050919050565b60006020820190508181036000830152613719816130dc565b9050919050565b60006020820190508181036000830152613739816130ff565b9050919050565b6000602082019050818103600083015261375981613122565b9050919050565b6000602082019050818103600083015261377981613145565b9050919050565b6000602082019050818103600083015261379981613168565b9050919050565b600060208201905081810360008301526137b98161318b565b9050919050565b600060208201905081810360008301526137d9816131d1565b9050919050565b600060208201905081810360008301526137f9816131f4565b9050919050565b6000602082019050818103600083015261381981613217565b9050919050565b600060208201905081810360008301526138398161323a565b9050919050565b6000602082019050818103600083015261385981613280565b9050919050565b60006020820190508181036000830152613879816132a3565b9050919050565b60006020820190508181036000830152613899816132c6565b9050919050565b600060208201905081810360008301526138b9816132e9565b9050919050565b600060208201905081810360008301526138d98161332f565b9050919050565b600060208201905081810360008301526138f981613352565b9050919050565b6000602082019050818103600083015261391981613398565b9050919050565b60006020820190508181036000830152613939816133bb565b9050919050565b60006020820190508181036000830152613959816133de565b9050919050565b6000602082019050613975600083018461348a565b92915050565b6000613985613996565b90506139918282613c8c565b919050565b6000604051905090565b600067ffffffffffffffff8211156139bb576139ba613dc4565b5b6139c482613df3565b9050602081019050919050565b600067ffffffffffffffff8211156139ec576139eb613dc4565b5b6139f582613df3565b9050602081019050919050565b6000819050602082019050919050565b600081519050919050565b600081519050919050565b600081519050919050565b6000602082019050919050565b600082825260208201905092915050565b600082825260208201905092915050565b600082825260208201905092915050565b600082825260208201905092915050565b600081905092915050565b6000613a9a82613c0e565b9150613aa583613c0e565b9250827fffffffffffffffffffffffffffffffffffffffffffffffffffffffffffffffff03821115613ada57613ad9613d37565b5b828201905092915050565b6000613af082613c0e565b9150613afb83613c0e565b925082613b0b57613b0a613d66565b5b828204905092915050565b6000613b2182613c0e565b9150613b2c83613c0e565b9250817fffffffffffffffffffffffffffffffffffffffffffffffffffffffffffffffff0483118215151615613b6557613b64613d37565b5b828202905092915050565b6000613b7b82613c0e565b9150613b8683613c0e565b925082821015613b9957613b98613d37565b5b828203905092915050565b6000613baf82613bee565b9050919050565b60008115159050919050565b60007fffffffff0000000000000000000000000000000000000000000000000000000082169050919050565b600073ffffffffffffffffffffffffffffffffffffffff82169050919050565b6000819050919050565b82818337600083830152505050565b60005b83811015613c45578082015181840152602081019050613c2a565b83811115613c54576000848401525b50505050565b60006002820490506001821680613c7257607f821691505b60208210811415613c8657613c85613d95565b5b50919050565b613c9582613df3565b810181811067ffffffffffffffff82111715613cb457613cb3613dc4565b5b80604052505050565b6000613cc882613c0e565b91507fffffffffffffffffffffffffffffffffffffffffffffffffffffffffffffffff821415613cfb57613cfa613d37565b5b600182019050919050565b6000613d1182613c0e565b9150613d1c83613c0e565b925082613d2c57613d2b613d66565b5b828206905092915050565b7f4e487b7100000000000000000000000000000000000000000000000000000000600052601160045260246000fd5b7f4e487b7100000000000000000000000000000000000000000000000000000000600052601260045260246000fd5b7f4e487b7100000000000000000000000000000000000000000000000000000000600052602260045260246000fd5b7f4e487b7100000000000000000000000000000000000000000000000000000000600052604160045260246000fd5b6000601f19601f8301169050919050565b7f4f6e6c7920686f6c6465722063616e20737769746368206d6574616461746100600082015250565b7f4552433732313a207472616e7366657220746f206e6f6e20455243373231526560008201527f63656976657220696d706c656d656e7465720000000000000000000000000000602082015250565b7f4552433732313a207472616e736665722066726f6d20696e636f72726563742060008201527f6f776e6572000000000000000000000000000000000000000000000000000000602082015250565b7f4552433732313a20746f6b656e20616c7265616479206d696e74656400000000600082015250565b7f4f766572206578697374696e67207265636f7264206c656e6774680000000000600082015250565b7f4f6e6c79206d696e7465722063616e20757064617465206d6574616461746100600082015250565b7f4552433732313a207472616e7366657220746f20746865207a65726f2061646460008201527f7265737300000000000000000000000000000000000000000000000000000000602082015250565b7f4552433732313a20617070726f766520746f2063616c6c657200000000000000600082015250565b7f4552433732313a206f70657261746f7220717565727920666f72206e6f6e657860008201527f697374656e7420746f6b656e0000000000000000000000000000000000000000602082015250565b7f222c226465736372697074696f6e223a20225259555a45545355204e4654222c60008201527f2022696d616765223a2022000000000000000000000000000000000000000000602082015250565b7f4552433732313a20617070726f76652063616c6c6572206973206e6f74206f7760008201527f6e6572206e6f7220617070726f76656420666f7220616c6c0000000000000000602082015250565b7f4552433732313a2062616c616e636520717565727920666f7220746865207a6560008201527f726f206164647265737300000000000000000000000000000000000000000000602082015250565b7f4552433732313a206f776e657220717565727920666f72206e6f6e657869737460008201527f656e7420746f6b656e0000000000000000000000000000000000000000000000602082015250565b7f45524337323155524953746f726167653a2055524920736574206f66206e6f6e60008201527f6578697374656e7420746f6b656e000000000000000000000000000000000000602082015250565b7f227d000000000000000000000000000000000000000000000000000000000000600082015250565b7f4552433732313a206d696e7420746f20746865207a65726f2061646472657373600082015250565b7f4f6e6c79206f776e65722063616e2072656465656d0000000000000000000000600082015250565b7f45524337323155524953746f726167653a2055524920717565727920666f722060008201527f6e6f6e6578697374656e7420746f6b656e000000000000000000000000000000602082015250565b7f4552433732313a20617070726f76656420717565727920666f72206e6f6e657860008201527f697374656e7420746f6b656e0000000000000000000000000000000000000000602082015250565b7f7b226e616d65223a20225259555a455453552023000000000000000000000000600082015250565b7f4552433732314d657461646174613a2055524920717565727920666f72206e6f60008201527f6e6578697374656e7420746f6b656e0000000000000000000000000000000000602082015250565b7f4552433732313a20617070726f76616c20746f2063757272656e74206f776e6560008201527f7200000000000000000000000000000000000000000000000000000000000000602082015250565b7f646174613a6170706c69636174696f6e2f6a736f6e3b6261736536342c000000600082015250565b7f4552433732313a207472616e736665722063616c6c6572206973206e6f74206f60008201527f776e6572206e6f7220617070726f766564000000000000000000000000000000602082015250565b7f4f766572206578697374696e6720746f6b656e49640000000000000000000000600082015250565b7f546f6b656e20697320696e76616c696400000000000000000000000000000000600082015250565b7f222c2022616e696d6174696f6e5f75726c223a20220000000000000000000000600082015250565b61447481613ba4565b811461447f57600080fd5b50565b61448b81613bb6565b811461449657600080fd5b50565b6144a281613bc2565b81146144ad57600080fd5b50565b6144b981613c0e565b81146144c457600080fd5b5056fe416e204e465420772f20494420257320686173206265656e206d696e74656420746f2025734142434445464748494a4b4c4d4e4f505152535455565758595a6162636465666768696a6b6c6d6e6f707172737475767778797a303132333435363738392b2fa2646970667358221220e06b780bfd570a0ecb23e900b5994be39bc4b08a71f94a05ef4abd5467ad12bb64736f6c63430008040033",
  "linkReferences": {},
  "deployedLinkReferences": {}
}